{
  "address": "0xb7f34e2cF2d1fDd7c5c465A335F8B1567c0c0Bfc",
  "abi": [
    {
      "inputs": [
        {
          "internalType": "contract IERC20",
          "name": "_l1Token",
          "type": "address"
        },
        {
          "internalType": "contract IERC20Bridged",
          "name": "_l2Token",
          "type": "address"
        }
      ],
      "stateMutability": "nonpayable",
      "type": "constructor"
    },
    {
      "anonymous": false,
      "inputs": [
        {
          "indexed": true,
          "internalType": "address",
          "name": "l1Token",
          "type": "address"
        },
        {
          "indexed": true,
          "internalType": "string",
          "name": "_l1Tx",
          "type": "string"
        },
        {
          "indexed": true,
          "internalType": "address",
          "name": "_to",
          "type": "address"
        },
        {
          "indexed": false,
          "internalType": "uint256",
          "name": "_amount",
          "type": "uint256"
        }
      ],
      "name": "DepositFinalized",
      "type": "event"
    },
    {
      "anonymous": false,
      "inputs": [
        {
          "indexed": true,
          "internalType": "bytes32",
          "name": "role",
          "type": "bytes32"
        },
        {
          "indexed": true,
          "internalType": "bytes32",
          "name": "previousAdminRole",
          "type": "bytes32"
        },
        {
          "indexed": true,
          "internalType": "bytes32",
          "name": "newAdminRole",
          "type": "bytes32"
        }
      ],
      "name": "RoleAdminChanged",
      "type": "event"
    },
    {
      "anonymous": false,
      "inputs": [
        {
          "indexed": true,
          "internalType": "bytes32",
          "name": "role",
          "type": "bytes32"
        },
        {
          "indexed": true,
          "internalType": "address",
          "name": "account",
          "type": "address"
        },
        {
          "indexed": true,
          "internalType": "address",
          "name": "sender",
          "type": "address"
        }
      ],
      "name": "RoleGranted",
      "type": "event"
    },
    {
      "anonymous": false,
      "inputs": [
        {
          "indexed": true,
          "internalType": "bytes32",
          "name": "role",
          "type": "bytes32"
        },
        {
          "indexed": true,
          "internalType": "address",
          "name": "account",
          "type": "address"
        },
        {
          "indexed": true,
          "internalType": "address",
          "name": "sender",
          "type": "address"
        }
      ],
      "name": "RoleRevoked",
      "type": "event"
    },
    {
      "anonymous": false,
      "inputs": [
        {
          "indexed": false,
          "internalType": "address",
          "name": "l1Token",
          "type": "address"
        },
        {
          "indexed": true,
          "internalType": "address",
          "name": "_from",
          "type": "address"
        },
        {
          "indexed": true,
          "internalType": "address",
          "name": "_to",
          "type": "address"
        },
        {
          "indexed": false,
          "internalType": "uint256",
          "name": "_amount",
          "type": "uint256"
        }
      ],
      "name": "WithdrawalInitiated",
      "type": "event"
    },
    {
      "inputs": [],
      "name": "DEFAULT_ADMIN_ROLE",
      "outputs": [
        {
          "internalType": "bytes32",
          "name": "",
          "type": "bytes32"
        }
      ],
      "stateMutability": "view",
      "type": "function"
    },
    {
      "inputs": [],
      "name": "ORACLE_ROLE",
      "outputs": [
        {
          "internalType": "bytes32",
          "name": "",
          "type": "bytes32"
        }
      ],
      "stateMutability": "view",
      "type": "function"
    },
    {
      "inputs": [
        {
          "internalType": "address",
          "name": "_to",
          "type": "address"
        },
        {
          "internalType": "string",
          "name": "_l1Tx",
          "type": "string"
        },
        {
          "internalType": "uint256",
          "name": "_amount",
          "type": "uint256"
        }
      ],
      "name": "finalizeInboundTransfer",
      "outputs": [],
      "stateMutability": "nonpayable",
      "type": "function"
    },
    {
      "inputs": [
        {
          "internalType": "bytes32",
          "name": "role",
          "type": "bytes32"
        }
      ],
      "name": "getRoleAdmin",
      "outputs": [
        {
          "internalType": "bytes32",
          "name": "",
          "type": "bytes32"
        }
      ],
      "stateMutability": "view",
      "type": "function"
    },
    {
      "inputs": [
        {
          "internalType": "bytes32",
          "name": "role",
          "type": "bytes32"
        },
        {
          "internalType": "address",
          "name": "account",
          "type": "address"
        }
      ],
      "name": "grantRole",
      "outputs": [],
      "stateMutability": "nonpayable",
      "type": "function"
    },
    {
      "inputs": [
        {
          "internalType": "bytes32",
          "name": "role",
          "type": "bytes32"
        },
        {
          "internalType": "address",
          "name": "account",
          "type": "address"
        }
      ],
      "name": "hasRole",
      "outputs": [
        {
          "internalType": "bool",
          "name": "",
          "type": "bool"
        }
      ],
      "stateMutability": "view",
      "type": "function"
    },
    {
      "inputs": [],
      "name": "l1Token",
      "outputs": [
        {
          "internalType": "contract IERC20",
          "name": "",
          "type": "address"
        }
      ],
      "stateMutability": "view",
      "type": "function"
    },
    {
      "inputs": [],
      "name": "l2Token",
      "outputs": [
        {
          "internalType": "contract IERC20Bridged",
          "name": "",
          "type": "address"
        }
      ],
      "stateMutability": "view",
      "type": "function"
    },
    {
      "inputs": [
        {
          "internalType": "address",
          "name": "_to",
          "type": "address"
        },
        {
          "internalType": "uint256",
          "name": "_amount",
          "type": "uint256"
        }
      ],
      "name": "outboundTransfer",
      "outputs": [],
      "stateMutability": "nonpayable",
      "type": "function"
    },
    {
      "inputs": [
        {
          "internalType": "bytes32",
          "name": "role",
          "type": "bytes32"
        },
        {
          "internalType": "address",
          "name": "account",
          "type": "address"
        }
      ],
      "name": "renounceRole",
      "outputs": [],
      "stateMutability": "nonpayable",
      "type": "function"
    },
    {
      "inputs": [
        {
          "internalType": "bytes32",
          "name": "role",
          "type": "bytes32"
        },
        {
          "internalType": "address",
          "name": "account",
          "type": "address"
        }
      ],
      "name": "revokeRole",
      "outputs": [],
      "stateMutability": "nonpayable",
      "type": "function"
    },
    {
      "inputs": [
        {
          "internalType": "bytes4",
          "name": "interfaceId",
          "type": "bytes4"
        }
      ],
      "name": "supportsInterface",
      "outputs": [
        {
          "internalType": "bool",
          "name": "",
          "type": "bool"
        }
      ],
      "stateMutability": "view",
      "type": "function"
    }
  ],
  "transactionHash": "0x4052d4c340f06765dd1ffcb96cdb97dfc6f1edc0b48bd94aa760cdb161216380",
  "args": [
    "0xCE3f6f6672616c39D8B6858F8DAC9902eCa42C84",
    "0xff6D784D5938CB3980Dce79BbAcEc53987D527d8"
  ],
  "solcInputHash": "d9be6b6eb6e43747d4c3b79ccf13f28e",
  "bytecode": "0x608060405234801561001057600080fd5b5060405162000e9538038062000e95833981016040819052610031916101c2565b6001600160a01b0382166100795760405162461bcd60e51b815260206004820152600a6024820152692d22a927afaa27a5a2a760b11b60448201526064015b60405180910390fd5b6001600160a01b0381166100bc5760405162461bcd60e51b815260206004820152600a6024820152692d22a927afaa27a5a2a760b11b6044820152606401610070565b600180546001600160a01b038085166001600160a01b03199283161790925560028054928416929091169190911790556100f76000336100fe565b50506101fc565b610108828261010c565b5050565b6000828152602081815260408083206001600160a01b038516845290915290205460ff16610108576000828152602081815260408083206001600160a01b03851684529091529020805460ff191660011790556101663390565b6001600160a01b0316816001600160a01b0316837f2f8788117e7eff1d82e926ec794901d17c78024a50270940304540a733656f0d60405160405180910390a45050565b6001600160a01b03811681146101bf57600080fd5b50565b600080604083850312156101d557600080fd5b82516101e0816101aa565b60208401519092506101f1816101aa565b809150509250929050565b610c89806200020c6000396000f3fe608060405234801561001057600080fd5b50600436106100b45760003560e01c80638ba9c828116100715780638ba9c8281461018c57806391d148541461019f578063a217fddf146101b2578063c01e1bd6146101ba578063d547741f146101cd578063d72ce90e146101e057600080fd5b806301ffc9a7146100b957806307e2cea5146100e1578063248a9ca3146101165780632f2ff15d1461013957806336568abe1461014e57806356eff26714610161575b600080fd5b6100cc6100c736600461092d565b6101f3565b60405190151581526020015b60405180910390f35b6101087f68e79a7bf1e0bc45d0a330c573bc367f9cf464fd326078812f301165fbda4ef181565b6040519081526020016100d8565b610108610124366004610957565b60009081526020819052604090206001015490565b61014c61014736600461098c565b61022a565b005b61014c61015c36600461098c565b610255565b600254610174906001600160a01b031681565b6040516001600160a01b0390911681526020016100d8565b61014c61019a3660046109b8565b6102d8565b6100cc6101ad36600461098c565b610458565b610108600081565b600154610174906001600160a01b031681565b61014c6101db36600461098c565b610481565b61014c6101ee3660046109f8565b6104a7565b60006001600160e01b03198216637965db0b60e01b148061022457506301ffc9a760e01b6001600160e01b03198316145b92915050565b600082815260208190526040902060010154610246813361063d565b61025083836106a1565b505050565b6001600160a01b03811633146102ca5760405162461bcd60e51b815260206004820152602f60248201527f416363657373436f6e74726f6c3a2063616e206f6e6c792072656e6f756e636560448201526e103937b632b9903337b91039b2b63360891b60648201526084015b60405180910390fd5b6102d48282610725565b5050565b6000811161031f5760405162461bcd60e51b815260206004820152601460248201527343616e6e6f74206275726e203020546f6b656e7360601b60448201526064016102c1565b6002546040516323b872dd60e01b8152336004820152306024820152604481018390526001600160a01b03909116906323b872dd90606401602060405180830381600087803b15801561037157600080fd5b505af1158015610385573d6000803e3d6000fd5b505050506040513d601f19601f820116820180604052508101906103a99190610ac3565b50600254604051630852cd8d60e31b8152600481018390526001600160a01b03909116906342966c6890602401600060405180830381600087803b1580156103f057600080fd5b505af1158015610404573d6000803e3d6000fd5b5050600154604080516001600160a01b0392831681526020810186905291861693503392507f2fc3848834aac8e883a2d2a17a7514dc4f2d3dd268089df9b9f5d918259ef3b0910160405180910390a35050565b6000918252602082815260408084206001600160a01b0393909316845291905290205460ff1690565b60008281526020819052604090206001015461049d813361063d565b6102508383610725565b7f68e79a7bf1e0bc45d0a330c573bc367f9cf464fd326078812f301165fbda4ef16104d2813361063d565b600082116105195760405162461bcd60e51b815260206004820152601460248201527343616e6e6f74206d696e74203020546f6b656e7360601b60448201526064016102c1565b6001600160a01b03841661056f5760405162461bcd60e51b815260206004820181905260248201527f546f6b656e2063616e6e6f7420626520746865207a65726f206164647265737360448201526064016102c1565b6002546040516340c10f1960e01b81526001600160a01b03868116600483015260248201859052909116906340c10f1990604401600060405180830381600087803b1580156105bd57600080fd5b505af11580156105d1573d6000803e3d6000fd5b50505050836001600160a01b0316836040516105ed9190610b15565b60405190819003812060015485835290916001600160a01b03909116907f446cb21a5a87b0b9b961eb4bb0b800e29accb236e438a2bc207ac4631a40c0959060200160405180910390a450505050565b6106478282610458565b6102d45761065f816001600160a01b0316601461078a565b61066a83602061078a565b60405160200161067b929190610b31565b60408051601f198184030181529082905262461bcd60e51b82526102c191600401610ba6565b6106ab8282610458565b6102d4576000828152602081815260408083206001600160a01b03851684529091529020805460ff191660011790556106e13390565b6001600160a01b0316816001600160a01b0316837f2f8788117e7eff1d82e926ec794901d17c78024a50270940304540a733656f0d60405160405180910390a45050565b61072f8282610458565b156102d4576000828152602081815260408083206001600160a01b0385168085529252808320805460ff1916905551339285917ff6391f5c32d9c69d2a47ea670b442974b53935d1edc7fd64eb21e047a839171b9190a45050565b60606000610799836002610bef565b6107a4906002610c0e565b67ffffffffffffffff8111156107bc576107bc6109e2565b6040519080825280601f01601f1916602001820160405280156107e6576020820181803683370190505b509050600360fc1b8160008151811061080157610801610c26565b60200101906001600160f81b031916908160001a905350600f60fb1b8160018151811061083057610830610c26565b60200101906001600160f81b031916908160001a9053506000610854846002610bef565b61085f906001610c0e565b90505b60018111156108d7576f181899199a1a9b1b9c1cb0b131b232b360811b85600f166010811061089357610893610c26565b1a60f81b8282815181106108a9576108a9610c26565b60200101906001600160f81b031916908160001a90535060049490941c936108d081610c3c565b9050610862565b5083156109265760405162461bcd60e51b815260206004820181905260248201527f537472696e67733a20686578206c656e67746820696e73756666696369656e7460448201526064016102c1565b9392505050565b60006020828403121561093f57600080fd5b81356001600160e01b03198116811461092657600080fd5b60006020828403121561096957600080fd5b5035919050565b80356001600160a01b038116811461098757600080fd5b919050565b6000806040838503121561099f57600080fd5b823591506109af60208401610970565b90509250929050565b600080604083850312156109cb57600080fd5b6109d483610970565b946020939093013593505050565b634e487b7160e01b600052604160045260246000fd5b600080600060608486031215610a0d57600080fd5b610a1684610970565b9250602084013567ffffffffffffffff80821115610a3357600080fd5b818601915086601f830112610a4757600080fd5b813581811115610a5957610a596109e2565b604051601f8201601f19908116603f01168101908382118183101715610a8157610a816109e2565b81604052828152896020848701011115610a9a57600080fd5b826020860160208301376000602084830101528096505050505050604084013590509250925092565b600060208284031215610ad557600080fd5b8151801515811461092657600080fd5b60005b83811015610b00578181015183820152602001610ae8565b83811115610b0f576000848401525b50505050565b60008251610b27818460208701610ae5565b9190910192915050565b7f416363657373436f6e74726f6c3a206163636f756e7420000000000000000000815260008351610b69816017850160208801610ae5565b7001034b99036b4b9b9b4b733903937b6329607d1b6017918401918201528351610b9a816028840160208801610ae5565b01602801949350505050565b6020815260008251806020840152610bc5816040850160208701610ae5565b601f01601f19169190910160400192915050565b634e487b7160e01b600052601160045260246000fd5b6000816000190483118215151615610c0957610c09610bd9565b500290565b60008219821115610c2157610c21610bd9565b500190565b634e487b7160e01b600052603260045260246000fd5b600081610c4b57610c4b610bd9565b50600019019056fea26469706673582212200c46494dcbdce8f9ec52eb539cb125baf1760cf9f94abc69560830503230b3df64736f6c63430008090033",
  "devdoc": {
    "author": "DAO1*",
    "details": "This contract deployed on secondary network with Bridged token contract - upon `finalizeInboundTransfer` call from oracle, it mints corresponding amount of tokens on Layer 2 network - upon `outboundTransfer` call from token holder it withdraws and burns L2 the requested token",
    "kind": "dev",
    "methods": {
      "finalizeInboundTransfer(address,string,uint256)": {
        "params": {
          "_amount": "Token amount being deposited",
          "_l1Tx": "Tx hash of `L1Bridge.outboundTransfer` on L1 side",
          "_to": "L2 address of destination"
        }
      },
      "getRoleAdmin(bytes32)": {
        "details": "Returns the admin role that controls `role`. See {grantRole} and {revokeRole}. To change a role's admin, use {_setRoleAdmin}."
      },
      "grantRole(bytes32,address)": {
        "details": "Grants `role` to `account`. If `account` had not been already granted `role`, emits a {RoleGranted} event. Requirements: - the caller must have ``role``'s admin role."
      },
      "hasRole(bytes32,address)": {
        "details": "Returns `true` if `account` has been granted `role`."
      },
      "outboundTransfer(address,uint256)": {
        "params": {
          "_amount": "Token amount being withdrawn",
          "_to": "L1 address of destination"
        }
      },
      "renounceRole(bytes32,address)": {
        "details": "Revokes `role` from the calling account. Roles are often managed via {grantRole} and {revokeRole}: this function's purpose is to provide a mechanism for accounts to lose their privileges if they are compromised (such as when a trusted device is misplaced). If the calling account had been granted `role`, emits a {RoleRevoked} event. Requirements: - the caller must be `account`."
      },
      "revokeRole(bytes32,address)": {
        "details": "Revokes `role` from `account`. If `account` had been granted `role`, emits a {RoleRevoked} event. Requirements: - the caller must have ``role``'s admin role."
      },
      "supportsInterface(bytes4)": {
        "details": "See {IERC165-supportsInterface}."
      }
    },
    "title": "Bridge Layer 2 contract",
    "version": 1
  },
  "userdoc": {
    "kind": "user",
    "methods": {
      "finalizeInboundTransfer(address,string,uint256)": {
        "notice": "Finalizes a deposit from L1 to L2; callable only by ORACLE_ROLE"
      },
      "outboundTransfer(address,uint256)": {
        "notice": "Initiates a withdrawal from L2 to L1; callable by any tokenholder."
      }
    },
    "version": 1
  },
  "storageLayout": {
    "storage": [
      {
        "astId": 62,
        "contract": "contracts/L2Bridge.sol:L2Bridge",
        "label": "_roles",
        "offset": 0,
        "slot": "0",
        "type": "t_mapping(t_bytes32,t_struct(RoleData)57_storage)"
      },
      {
        "astId": 3694,
        "contract": "contracts/L2Bridge.sol:L2Bridge",
        "label": "l1Token",
        "offset": 0,
        "slot": "1",
        "type": "t_contract(IERC20)1095"
      },
      {
        "astId": 3697,
        "contract": "contracts/L2Bridge.sol:L2Bridge",
        "label": "l2Token",
        "offset": 0,
        "slot": "2",
        "type": "t_contract(IERC20Bridged)3685"
      }
    ],
    "types": {
      "t_address": {
        "encoding": "inplace",
        "label": "address",
        "numberOfBytes": "20"
      },
      "t_bool": {
        "encoding": "inplace",
        "label": "bool",
        "numberOfBytes": "1"
      },
      "t_bytes32": {
        "encoding": "inplace",
        "label": "bytes32",
        "numberOfBytes": "32"
      },
      "t_contract(IERC20)1095": {
        "encoding": "inplace",
        "label": "contract IERC20",
        "numberOfBytes": "20"
      },
      "t_contract(IERC20Bridged)3685": {
        "encoding": "inplace",
        "label": "contract IERC20Bridged",
        "numberOfBytes": "20"
      },
      "t_mapping(t_address,t_bool)": {
        "encoding": "mapping",
        "key": "t_address",
        "label": "mapping(address => bool)",
        "numberOfBytes": "32",
        "value": "t_bool"
      },
      "t_mapping(t_bytes32,t_struct(RoleData)57_storage)": {
        "encoding": "mapping",
        "key": "t_bytes32",
        "label": "mapping(bytes32 => struct AccessControl.RoleData)",
        "numberOfBytes": "32",
        "value": "t_struct(RoleData)57_storage"
      },
      "t_struct(RoleData)57_storage": {
        "encoding": "inplace",
        "label": "struct AccessControl.RoleData",
        "members": [
          {
            "astId": 54,
            "contract": "contracts/L2Bridge.sol:L2Bridge",
            "label": "members",
            "offset": 0,
            "slot": "0",
            "type": "t_mapping(t_address,t_bool)"
          },
          {
            "astId": 56,
            "contract": "contracts/L2Bridge.sol:L2Bridge",
            "label": "adminRole",
            "offset": 0,
            "slot": "1",
            "type": "t_bytes32"
          }
        ],
        "numberOfBytes": "64"
      }
    }
  }
}