{
  "address": "0xCb912Ae95b0d5Ad6f6d18c9828a023fd459966d4",
  "abi": [
    {
      "inputs": [
        {
          "internalType": "address",
          "name": "_token",
          "type": "address"
        },
        {
          "internalType": "uint256",
          "name": "_stakeDurationDays",
          "type": "uint256"
        },
        {
          "internalType": "uint256",
          "name": "_yieldRate",
          "type": "uint256"
        },
        {
          "internalType": "uint256",
          "name": "_earlyUnstakeFee",
          "type": "uint256"
        }
      ],
      "stateMutability": "nonpayable",
      "type": "constructor"
    },
    {
      "anonymous": false,
      "inputs": [
        {
          "indexed": true,
          "internalType": "address",
          "name": "user",
          "type": "address"
        },
        {
          "indexed": true,
          "internalType": "uint256",
          "name": "stakeId",
          "type": "uint256"
        },
        {
          "indexed": false,
          "internalType": "uint256",
          "name": "amount",
          "type": "uint256"
        },
        {
          "indexed": false,
          "internalType": "uint256",
          "name": "harvestTime",
          "type": "uint256"
        }
      ],
      "name": "Harvest",
      "type": "event"
    },
    {
      "anonymous": false,
      "inputs": [
        {
          "indexed": true,
          "internalType": "address",
          "name": "previousOwner",
          "type": "address"
        },
        {
          "indexed": true,
          "internalType": "address",
          "name": "newOwner",
          "type": "address"
        }
      ],
      "name": "OwnershipTransferred",
      "type": "event"
    },
    {
      "anonymous": false,
      "inputs": [
        {
          "indexed": true,
          "internalType": "address",
          "name": "user",
          "type": "address"
        },
        {
          "indexed": true,
          "internalType": "uint256",
          "name": "stakeId",
          "type": "uint256"
        },
        {
          "indexed": false,
          "internalType": "uint256",
          "name": "amount",
          "type": "uint256"
        },
        {
          "indexed": false,
          "internalType": "uint256",
          "name": "startTime",
          "type": "uint256"
        },
        {
          "indexed": false,
          "internalType": "uint256",
          "name": "endTime",
          "type": "uint256"
        }
      ],
      "name": "Stake",
      "type": "event"
    },
    {
      "anonymous": false,
      "inputs": [
        {
          "indexed": true,
          "internalType": "address",
          "name": "user",
          "type": "address"
        },
        {
          "indexed": true,
          "internalType": "uint256",
          "name": "stakeId",
          "type": "uint256"
        },
        {
          "indexed": false,
          "internalType": "uint256",
          "name": "amount",
          "type": "uint256"
        },
        {
          "indexed": false,
          "internalType": "uint256",
          "name": "startTime",
          "type": "uint256"
        },
        {
          "indexed": false,
          "internalType": "uint256",
          "name": "endTime",
          "type": "uint256"
        },
        {
          "indexed": false,
          "internalType": "bool",
          "name": "early",
          "type": "bool"
        }
      ],
      "name": "Unstake",
      "type": "event"
    },
    {
      "inputs": [],
      "name": "WITHDRAWAL_LOCKUP_DURATION",
      "outputs": [
        {
          "internalType": "uint256",
          "name": "",
          "type": "uint256"
        }
      ],
      "stateMutability": "view",
      "type": "function"
    },
    {
      "inputs": [],
      "name": "allocatedTokens",
      "outputs": [
        {
          "internalType": "uint256",
          "name": "",
          "type": "uint256"
        }
      ],
      "stateMutability": "view",
      "type": "function"
    },
    {
      "inputs": [],
      "name": "earlyUnstakeFee",
      "outputs": [
        {
          "internalType": "uint256",
          "name": "",
          "type": "uint256"
        }
      ],
      "stateMutability": "view",
      "type": "function"
    },
    {
      "inputs": [
        {
          "internalType": "address",
          "name": "_userAddress",
          "type": "address"
        },
        {
          "internalType": "uint256",
          "name": "_stakeId",
          "type": "uint256"
        }
      ],
      "name": "getStake",
      "outputs": [
        {
          "internalType": "bool",
          "name": "staked",
          "type": "bool"
        },
        {
          "internalType": "uint256",
          "name": "stakedAmount",
          "type": "uint256"
        },
        {
          "internalType": "uint256",
          "name": "startTime",
          "type": "uint256"
        },
        {
          "internalType": "uint256",
          "name": "endTime",
          "type": "uint256"
        },
        {
          "internalType": "uint256",
          "name": "totalYield",
          "type": "uint256"
        },
        {
          "internalType": "uint256",
          "name": "harvestedYield",
          "type": "uint256"
        },
        {
          "internalType": "uint256",
          "name": "lastHarvestTime",
          "type": "uint256"
        },
        {
          "internalType": "uint256",
          "name": "harvestableYield",
          "type": "uint256"
        }
      ],
      "stateMutability": "view",
      "type": "function"
    },
    {
      "inputs": [
        {
          "internalType": "address",
          "name": "_userAddress",
          "type": "address"
        }
      ],
      "name": "getStakesLength",
      "outputs": [
        {
          "internalType": "uint256",
          "name": "",
          "type": "uint256"
        }
      ],
      "stateMutability": "view",
      "type": "function"
    },
    {
      "inputs": [
        {
          "internalType": "uint256",
          "name": "_stakeId",
          "type": "uint256"
        }
      ],
      "name": "harvest",
      "outputs": [],
      "stateMutability": "nonpayable",
      "type": "function"
    },
    {
      "inputs": [],
      "name": "owner",
      "outputs": [
        {
          "internalType": "address",
          "name": "",
          "type": "address"
        }
      ],
      "stateMutability": "view",
      "type": "function"
    },
    {
      "inputs": [],
      "name": "renounceOwnership",
      "outputs": [],
      "stateMutability": "nonpayable",
      "type": "function"
    },
    {
      "inputs": [
        {
          "internalType": "uint256",
          "name": "_amount",
          "type": "uint256"
        }
      ],
      "name": "stake",
      "outputs": [],
      "stateMutability": "nonpayable",
      "type": "function"
    },
    {
      "inputs": [],
      "name": "stakeDurationDays",
      "outputs": [
        {
          "internalType": "uint256",
          "name": "",
          "type": "uint256"
        }
      ],
      "stateMutability": "view",
      "type": "function"
    },
    {
      "inputs": [],
      "name": "stakedTokens",
      "outputs": [
        {
          "internalType": "uint256",
          "name": "",
          "type": "uint256"
        }
      ],
      "stateMutability": "view",
      "type": "function"
    },
    {
      "inputs": [
        {
          "internalType": "address",
          "name": "",
          "type": "address"
        },
        {
          "internalType": "uint256",
          "name": "",
          "type": "uint256"
        }
      ],
      "name": "stakes",
      "outputs": [
        {
          "internalType": "bool",
          "name": "staked",
          "type": "bool"
        },
        {
          "internalType": "uint256",
          "name": "stakedAmount",
          "type": "uint256"
        },
        {
          "internalType": "uint256",
          "name": "startTime",
          "type": "uint256"
        },
        {
          "internalType": "uint256",
          "name": "endTime",
          "type": "uint256"
        },
        {
          "internalType": "uint256",
          "name": "totalYield",
          "type": "uint256"
        },
        {
          "internalType": "uint256",
          "name": "harvestedYield",
          "type": "uint256"
        },
        {
          "internalType": "uint256",
          "name": "lastHarvestTime",
          "type": "uint256"
        }
      ],
      "stateMutability": "view",
      "type": "function"
    },
    {
      "inputs": [],
      "name": "stakesOpen",
      "outputs": [
        {
          "internalType": "bool",
          "name": "",
          "type": "bool"
        }
      ],
      "stateMutability": "view",
      "type": "function"
    },
    {
      "inputs": [],
      "name": "start",
      "outputs": [],
      "stateMutability": "nonpayable",
      "type": "function"
    },
    {
      "inputs": [],
      "name": "stop",
      "outputs": [],
      "stateMutability": "nonpayable",
      "type": "function"
    },
    {
      "inputs": [],
      "name": "token",
      "outputs": [
        {
          "internalType": "contract IERC20",
          "name": "",
          "type": "address"
        }
      ],
      "stateMutability": "view",
      "type": "function"
    },
    {
      "inputs": [
        {
          "internalType": "address",
          "name": "newOwner",
          "type": "address"
        }
      ],
      "name": "transferOwnership",
      "outputs": [],
      "stateMutability": "nonpayable",
      "type": "function"
    },
    {
      "inputs": [],
      "name": "unallocatedTokens",
      "outputs": [
        {
          "internalType": "uint256",
          "name": "",
          "type": "uint256"
        }
      ],
      "stateMutability": "view",
      "type": "function"
    },
    {
      "inputs": [
        {
          "internalType": "uint256",
          "name": "_stakeId",
          "type": "uint256"
        }
      ],
      "name": "unstake",
      "outputs": [],
      "stateMutability": "nonpayable",
      "type": "function"
    },
    {
      "inputs": [
        {
          "internalType": "address",
          "name": "_to",
          "type": "address"
        },
        {
          "internalType": "uint256",
          "name": "_amount",
          "type": "uint256"
        }
      ],
      "name": "withdrawUnallocatedTokens",
      "outputs": [],
      "stateMutability": "nonpayable",
      "type": "function"
    },
    {
      "inputs": [],
      "name": "withdrawalUnlockTime",
      "outputs": [
        {
          "internalType": "uint256",
          "name": "",
          "type": "uint256"
        }
      ],
      "stateMutability": "view",
      "type": "function"
    },
    {
      "inputs": [],
      "name": "yieldRate",
      "outputs": [
        {
          "internalType": "uint256",
          "name": "",
          "type": "uint256"
        }
      ],
      "stateMutability": "view",
      "type": "function"
    }
  ],
  "transactionHash": "0x3d40bacf6e3273a2da199d597e83539385a7c7cc80db1acce18a861ef2ce192d",
  "args": [
    "0xdB78Dc9161906473F65393fdAA306dBc5c6E5f0B",
    2,
    450,
    450
  ],
  "solcInputHash": "64755b7e0e55ac0fddacf63580d539d6",
  "bytecode": "0x60806040523480156200001157600080fd5b506040516200173d3803806200173d8339810160408190526200003491620001f3565b6200003f336200018e565b6001600160a01b0384166200009b5760405162461bcd60e51b815260206004820152601360248201527f456d70747920746f6b656e20616464726573730000000000000000000000000060448201526064015b60405180910390fd5b60008211620000df5760405162461bcd60e51b815260206004820152600f60248201526e5a65726f207969656c64207261746560881b604482015260640162000092565b60008111620001315760405162461bcd60e51b815260206004820152601660248201527f5a65726f206561726c7920556e7374616b652046656500000000000000000000604482015260640162000092565b600180546001600160a01b0319166001600160a01b038616179055600483905560068290556005819055620001806302c7ea006200016c4290565b620001de60201b62000f1d1790919060201c565b600855506200026792505050565b600080546001600160a01b038381166001600160a01b0319831681178455604051919092169283917f8be0079c531659141344cd1fd0a4f28419497f9722a3daafe3b4186f6b6457e09190a35050565b6000620001ec828462000240565b9392505050565b600080600080608085870312156200020a57600080fd5b84516001600160a01b03811681146200022257600080fd5b60208601516040870151606090970151919890975090945092505050565b600082198211156200026257634e487b7160e01b600052601160045260246000fd5b500190565b6114c680620002776000396000f3fe608060405234801561001057600080fd5b50600436106101415760003560e01c8063715018a6116100b8578063cb6290091161007c578063cb62900914610284578063cb913c821461028d578063cfd47663146102b1578063ddc6326214610301578063f2fde38b14610314578063fc0c546a1461032757600080fd5b8063715018a6146102135780638da5cb5b1461021b578063909767d914610240578063a694fc3a14610269578063be9a65551461027c57600080fd5b80632736f3ea1161010a5780632736f3ea14610191578063296ee19f1461019c5780632e17de78146101a457806354b6081e146101b7578063584b62a1146101c05780636999ac931461020a57600080fd5b80622f9569146101465780630711306d1461016257806307da68f51461016b57806313f0630914610175578063245acab214610188575b600080fd5b61014f60075481565b6040519081526020015b60405180910390f35b61014f60055481565b61017361033a565b005b6101736101833660046112c6565b6103d5565b61014f60045481565b61014f6302c7ea0081565b61014f610562565b6101736101b2366004611312565b6105fb565b61014f60085481565b6101d36101ce3660046112c6565b610879565b6040805197151588526020880196909652948601939093526060850191909152608084015260a083015260c082015260e001610159565b61014f60065481565b6101736108d7565b6000546001600160a01b03165b6040516001600160a01b039091168152602001610159565b61014f61024e3660046112ab565b6001600160a01b031660009081526002602052604090205490565b610173610277366004611312565b61090d565b610173610b89565b61014f60035481565b6000546102a190600160a01b900460ff1681565b6040519015158152602001610159565b6102c46102bf3660046112c6565b610c22565b6040805198151589526020890197909752958701949094526060860192909252608085015260a084015260c083015260e082015261010001610159565b61017361030f366004611312565b610d3c565b6101736103223660046112ab565b610e82565b600154610228906001600160a01b031681565b6000546001600160a01b0316331461036d5760405162461bcd60e51b815260040161036490611393565b60405180910390fd5b600054600160a01b900460ff166103c65760405162461bcd60e51b815260206004820152601a60248201527f5374616b6573206172652073746f7070656420616c72656164790000000000006044820152606401610364565b6000805460ff60a01b19169055565b6000546001600160a01b031633146103ff5760405162461bcd60e51b815260040161036490611393565b6001600160a01b03821661044e5760405162461bcd60e51b8152602060048201526016602482015275456d707479207265636569766572206164647265737360501b6044820152606401610364565b6000811161048c5760405162461bcd60e51b815260206004820152600b60248201526a16995c9bc8185b5bdd5b9d60aa1b6044820152606401610364565b80610495610562565b10156104e35760405162461bcd60e51b815260206004820152601c60248201527f4e6f7420656e6f75676820756e616c6c6f6361746564546f6b656e73000000006044820152606401610364565b6008544210156105475760405162461bcd60e51b815260206004820152602960248201527f43616e277420776974686472617720756e74696c207769746864726177616c556044820152686e6c6f636b54696d6560b81b6064820152608401610364565b60015461055e906001600160a01b03168383610f30565b5050565b6007546003546001546040516370a0823160e01b81523060048201526000936105f69390926105f0926001600160a01b03909116906370a082319060240160206040518083038186803b1580156105b857600080fd5b505afa1580156105cc573d6000803e3d6000fd5b505050506040513d601f19601f820116820180604052508101906105f0919061132b565b90610f93565b905090565b60008060008060008060006106103389610c22565b9750509650965096509650965096506000876106615760405162461bcd60e51b815260206004820152601060248201526f556e7374616b656420616c726561647960801b6044820152606401610364565b844211156106d95733600090815260026020526040812080548b90811061068a5761068a61147a565b60009182526020909120600790910201805460ff19169115159190911790556003546106b69088610f93565b600355506001546000906106d4906001600160a01b03163389610f30565b610821565b60006106e58484610f1d565b90506106fd6106f48683610f93565b60075490610f93565b60075533600090815260026020526040812080548c9081106107215761072161147a565b60009182526020909120600790910201805460ff19169115159190911790554233600090815260026020526040902080548c9081106107625761076261147a565b9060005260206000209060070201600301819055508060026000336001600160a01b03166001600160a01b031681526020019081526020016000208b815481106107ae576107ae61147a565b60009182526020909120600460079092020101556003546107cf9089610f93565b600355600554600192506000906107f590612710906107ef908c90610f9f565b90610fab565b905060006108038a83610f93565b60015490915061081d906001600160a01b03163383610f30565b5050505b60408051888152602081018890529081018690528115156060820152899033907fc27678b8d9d59c0688159890347f79df5b543dff3fcad311f8142181a3661c149060800160405180910390a3505050505050505050565b6002602052816000526040600020818154811061089557600080fd5b6000918252602090912060079091020180546001820154600283015460038401546004850154600586015460069096015460ff90951697509295509093909287565b6000546001600160a01b031633146109015760405162461bcd60e51b815260040161036490611393565b61090b6000610fb7565b565b600054600160a01b900460ff166109585760405162461bcd60e51b815260206004820152600f60248201526e39ba30b5b29d103737ba1037b832b760891b6044820152606401610364565b6000811161099d5760405162461bcd60e51b81526020600482015260126024820152711cdd185ad94e881e995c9bc8185b5bdd5b9d60721b6044820152606401610364565b60006109ba6127106107ef60065485610f9f90919063ffffffff16565b9050806109c5610562565b1015610a2a5760405162461bcd60e51b815260206004820152602e60248201527f7374616b653a206e6f7420656e6f75676820616c6c6f7474656420746f6b656e60448201526d1cc81d1bc81c185e481e5a595b1960921b6064820152608401610364565b6004544290600090610a4a90610a439062015180610f9f565b4290610f1d565b336000908152600260208181526040808420815160e08101835260018082528185018c81529382018a815260608301898152608084018d815260a085018a815260c086018e815287548087018955978c5298909a2094516007968702909501805460ff191695151595909517855595519284019290925551958201959095559351600385015590516004840155925160058301555160069091015554909150610af39084610f1d565b600755600354610b039085610f1d565b60035533600090815260026020526040812054610b22906001906105f0565b6040805187815260208101869052908101849052909150819033907f2720efa4b2dd4f3f8a347da3cbd290a522e9432da9072c5b8e6300496fdde2829060600160405180910390a3600154610b82906001600160a01b0316333088611007565b5050505050565b6000546001600160a01b03163314610bb35760405162461bcd60e51b815260040161036490611393565b600054600160a01b900460ff1615610c0d5760405162461bcd60e51b815260206004820152601760248201527f5374616b657320617265206f70656e20616c72656164790000000000000000006044820152606401610364565b6000805460ff60a01b1916600160a01b179055565b6000806000806000806000806000600260008c6001600160a01b03166001600160a01b031681526020019081526020016000208a81548110610c6657610c6661147a565b60009182526020918290206040805160e0810182526007909302909101805460ff16151580845260018201549484018590526002820154928401839052600382015460608501819052600483015460808601819052600584015460a0870181905260069094015460c08701819052929f50959d50929b50919950929750919550909350905085610cf34290565b1115610d0a57610d038585610f93565b9150610d2e565b610d2b610d178789610f93565b6107ef610d2486426105f0565b8890610f9f565b91505b509295985092959890939650565b600080610d493384610c22565b975050965050505050508060001415610da45760405162461bcd60e51b815260206004820152601860248201527f6861727665737461626c655969656c64206973207a65726f00000000000000006044820152606401610364565b600754610db19082610f93565b600755610dbe8282610f1d565b336000908152600260205260409020805485908110610ddf57610ddf61147a565b600091825260209091206005600790920201015542336000908152600260205260409020805485908110610e1557610e1561147a565b600091825260209091206007909102016006015582337f4534f107610758c3931de9ad1e176476fcfb8c74adf920167e1d54ee84fcfe7683426040805192835260208301919091520160405180910390a3600154610e7d906001600160a01b03163383610f30565b505050565b6000546001600160a01b03163314610eac5760405162461bcd60e51b815260040161036490611393565b6001600160a01b038116610f115760405162461bcd60e51b815260206004820152602660248201527f4f776e61626c653a206e6577206f776e657220697320746865207a65726f206160448201526564647265737360d01b6064820152608401610364565b610f1a81610fb7565b50565b6000610f2982846113c8565b9392505050565b6040516001600160a01b038316602482015260448101829052610e7d90849063a9059cbb60e01b906064015b60408051601f198184030181529190526020810180516001600160e01b03166001600160e01b031990931692909217909152611045565b6000610f298284611421565b6000610f298284611402565b6000610f2982846113e0565b600080546001600160a01b038381166001600160a01b0319831681178455604051919092169283917f8be0079c531659141344cd1fd0a4f28419497f9722a3daafe3b4186f6b6457e09190a35050565b6040516001600160a01b038085166024830152831660448201526064810182905261103f9085906323b872dd60e01b90608401610f5c565b50505050565b600061109a826040518060400160405280602081526020017f5361666545524332303a206c6f772d6c6576656c2063616c6c206661696c6564815250856001600160a01b03166111179092919063ffffffff16565b805190915015610e7d57808060200190518101906110b891906112f0565b610e7d5760405162461bcd60e51b815260206004820152602a60248201527f5361666545524332303a204552433230206f7065726174696f6e20646964206e6044820152691bdd081cdd58d8d9595960b21b6064820152608401610364565b6060611126848460008561112e565b949350505050565b60608247101561118f5760405162461bcd60e51b815260206004820152602660248201527f416464726573733a20696e73756666696369656e742062616c616e636520666f6044820152651c8818d85b1b60d21b6064820152608401610364565b843b6111dd5760405162461bcd60e51b815260206004820152601d60248201527f416464726573733a2063616c6c20746f206e6f6e2d636f6e74726163740000006044820152606401610364565b600080866001600160a01b031685876040516111f99190611344565b60006040518083038185875af1925050503d8060008114611236576040519150601f19603f3d011682016040523d82523d6000602084013e61123b565b606091505b509150915061124b828286611256565b979650505050505050565b60608315611265575081610f29565b8251156112755782518084602001fd5b8160405162461bcd60e51b81526004016103649190611360565b80356001600160a01b03811681146112a657600080fd5b919050565b6000602082840312156112bd57600080fd5b610f298261128f565b600080604083850312156112d957600080fd5b6112e28361128f565b946020939093013593505050565b60006020828403121561130257600080fd5b81518015158114610f2957600080fd5b60006020828403121561132457600080fd5b5035919050565b60006020828403121561133d57600080fd5b5051919050565b60008251611356818460208701611438565b9190910192915050565b602081526000825180602084015261137f816040850160208701611438565b601f01601f19169190910160400192915050565b6020808252818101527f4f776e61626c653a2063616c6c6572206973206e6f7420746865206f776e6572604082015260600190565b600082198211156113db576113db611464565b500190565b6000826113fd57634e487b7160e01b600052601260045260246000fd5b500490565b600081600019048311821515161561141c5761141c611464565b500290565b60008282101561143357611433611464565b500390565b60005b8381101561145357818101518382015260200161143b565b8381111561103f5750506000910152565b634e487b7160e01b600052601160045260246000fd5b634e487b7160e01b600052603260045260246000fdfea2646970667358221220594ff90bd7dc2b79edf187d5409e0aa63a7a32ff8e659257e41aff61f003f0c864736f6c63430008060033",
  "devdoc": {
    "kind": "dev",
    "methods": {
      "constructor": {
        "details": "the constructor arguments:",
        "params": {
          "_earlyUnstakeFee": "fee for unstaking before stake expiration",
          "_stakeDurationDays": "the stake duration in days",
          "_token": "address of token - the same accepted for staking and used to pay rewards",
          "_yieldRate": "reward rate in basis points (1/10000)"
        }
      },
      "getStake(address,uint256)": {
        "details": "get the individual stake parameters of the user",
        "params": {
          "_stakeId": "stake index",
          "_userAddress": "account of staker"
        },
        "returns": {
          "endTime": "the time when unstaking (w.o. penalties) becomes possible",
          "harvestableYield": "The unlocked part of yield available for harvesting",
          "harvestedYield": "The part of yield user harvested already",
          "lastHarvestTime": "The time of last harvest event",
          "staked": "the status of stake",
          "stakedAmount": "the number of deposited tokens",
          "startTime": "the moment of stake start",
          "totalYield": "entire yield for the stake (totally released on endTime)"
        }
      },
      "getStakesLength(address)": {
        "details": "get the count of user's stakes. Used on frontend to iterate and display individual stakes",
        "params": {
          "_userAddress": "account of staker"
        },
        "returns": {
          "_0": "stakes"
        }
      },
      "harvest(uint256)": {
        "details": "harvest accumulated rewards. Can be called many times.",
        "params": {
          "_stakeId": "Id of the stake"
        }
      },
      "owner()": {
        "details": "Returns the address of the current owner."
      },
      "renounceOwnership()": {
        "details": "Leaves the contract without owner. It will not be possible to call `onlyOwner` functions anymore. Can only be called by the current owner. NOTE: Renouncing ownership will leave the contract without an owner, thereby removing any functionality that is only available to the owner."
      },
      "stake(uint256)": {
        "details": "submit the stake",
        "params": {
          "_amount": "amount of tokens to be transferred from user's account"
        }
      },
      "start()": {
        "details": "start accepting new stakes. Called only by the owner"
      },
      "stop()": {
        "details": "stop accepting new stakes. Called only by the owner"
      },
      "transferOwnership(address)": {
        "details": "Transfers ownership of the contract to a new account (`newOwner`). Can only be called by the current owner."
      },
      "unallocatedTokens()": {
        "details": "get the amount of available tokens neither staked nor allocated for rewards",
        "returns": {
          "_0": "amount of unallocated tokens"
        }
      },
      "unstake(uint256)": {
        "details": "withdraw the `body` of user's stake. Can be called only once",
        "params": {
          "_stakeId": "Id of the stake"
        }
      },
      "withdrawUnallocatedTokens(address,uint256)": {
        "details": "the owner is able to withdraw excess tokens to collect early unstake fees or to reuse unused funds suitable for assets rebalancing between staking contracts.",
        "params": {
          "_amount": "amount of tokens in atto (1e-18) units",
          "_to": "address who will receive the funds"
        }
      }
    },
    "version": 1
  },
  "userdoc": {
    "kind": "user",
    "methods": {},
    "version": 1
  },
  "storageLayout": {
    "storage": [
      {
        "astId": 7,
        "contract": "contracts/FixedStaking.sol:FixedStaking",
        "label": "_owner",
        "offset": 0,
        "slot": "0",
        "type": "t_address"
      },
      {
        "astId": 1575,
        "contract": "contracts/FixedStaking.sol:FixedStaking",
        "label": "stakesOpen",
        "offset": 20,
        "slot": "0",
        "type": "t_bool"
      },
      {
        "astId": 1578,
        "contract": "contracts/FixedStaking.sol:FixedStaking",
        "label": "token",
        "offset": 0,
        "slot": "1",
        "type": "t_contract(IERC20)181"
      },
      {
        "astId": 1584,
        "contract": "contracts/FixedStaking.sol:FixedStaking",
        "label": "stakes",
        "offset": 0,
        "slot": "2",
        "type": "t_mapping(t_address,t_array(t_struct(StakeInfo)1573_storage)dyn_storage)"
      },
      {
        "astId": 1586,
        "contract": "contracts/FixedStaking.sol:FixedStaking",
        "label": "stakedTokens",
        "offset": 0,
        "slot": "3",
        "type": "t_uint256"
      },
      {
        "astId": 1588,
        "contract": "contracts/FixedStaking.sol:FixedStaking",
        "label": "stakeDurationDays",
        "offset": 0,
        "slot": "4",
        "type": "t_uint256"
      },
      {
        "astId": 1590,
        "contract": "contracts/FixedStaking.sol:FixedStaking",
        "label": "earlyUnstakeFee",
        "offset": 0,
        "slot": "5",
        "type": "t_uint256"
      },
      {
        "astId": 1592,
        "contract": "contracts/FixedStaking.sol:FixedStaking",
        "label": "yieldRate",
        "offset": 0,
        "slot": "6",
        "type": "t_uint256"
      },
      {
        "astId": 1594,
        "contract": "contracts/FixedStaking.sol:FixedStaking",
        "label": "allocatedTokens",
        "offset": 0,
        "slot": "7",
        "type": "t_uint256"
      },
      {
        "astId": 1601,
        "contract": "contracts/FixedStaking.sol:FixedStaking",
        "label": "withdrawalUnlockTime",
        "offset": 0,
        "slot": "8",
        "type": "t_uint256"
      }
    ],
    "types": {
      "t_address": {
        "encoding": "inplace",
        "label": "address",
        "numberOfBytes": "20"
      },
      "t_array(t_struct(StakeInfo)1573_storage)dyn_storage": {
        "base": "t_struct(StakeInfo)1573_storage",
        "encoding": "dynamic_array",
        "label": "struct FixedStaking.StakeInfo[]",
        "numberOfBytes": "32"
      },
      "t_bool": {
        "encoding": "inplace",
        "label": "bool",
        "numberOfBytes": "1"
      },
      "t_contract(IERC20)181": {
        "encoding": "inplace",
        "label": "contract IERC20",
        "numberOfBytes": "20"
      },
      "t_mapping(t_address,t_array(t_struct(StakeInfo)1573_storage)dyn_storage)": {
        "encoding": "mapping",
        "key": "t_address",
        "label": "mapping(address => struct FixedStaking.StakeInfo[])",
        "numberOfBytes": "32",
        "value": "t_array(t_struct(StakeInfo)1573_storage)dyn_storage"
      },
      "t_struct(StakeInfo)1573_storage": {
        "encoding": "inplace",
        "label": "struct FixedStaking.StakeInfo",
        "members": [
          {
            "astId": 1560,
            "contract": "contracts/FixedStaking.sol:FixedStaking",
            "label": "staked",
            "offset": 0,
            "slot": "0",
            "type": "t_bool"
          },
          {
            "astId": 1562,
            "contract": "contracts/FixedStaking.sol:FixedStaking",
            "label": "stakedAmount",
            "offset": 0,
            "slot": "1",
            "type": "t_uint256"
          },
          {
            "astId": 1564,
            "contract": "contracts/FixedStaking.sol:FixedStaking",
            "label": "startTime",
            "offset": 0,
            "slot": "2",
            "type": "t_uint256"
          },
          {
            "astId": 1566,
            "contract": "contracts/FixedStaking.sol:FixedStaking",
            "label": "endTime",
            "offset": 0,
            "slot": "3",
            "type": "t_uint256"
          },
          {
            "astId": 1568,
            "contract": "contracts/FixedStaking.sol:FixedStaking",
            "label": "totalYield",
            "offset": 0,
            "slot": "4",
            "type": "t_uint256"
          },
          {
            "astId": 1570,
            "contract": "contracts/FixedStaking.sol:FixedStaking",
            "label": "harvestedYield",
            "offset": 0,
            "slot": "5",
            "type": "t_uint256"
          },
          {
            "astId": 1572,
            "contract": "contracts/FixedStaking.sol:FixedStaking",
            "label": "lastHarvestTime",
            "offset": 0,
            "slot": "6",
            "type": "t_uint256"
          }
        ],
        "numberOfBytes": "224"
      },
      "t_uint256": {
        "encoding": "inplace",
        "label": "uint256",
        "numberOfBytes": "32"
      }
    }
  }
}