{
  "address": "0xFF01b75f2c155dBDA36E68eB6557DEE8d36D6A99",
  "abi": [
    {
      "inputs": [
        {
          "internalType": "contract IERC20",
          "name": "_l1Token",
          "type": "address"
        },
        {
          "internalType": "contract IERC20",
          "name": "_l2Token",
          "type": "address"
        }
      ],
      "stateMutability": "nonpayable",
      "type": "constructor"
    },
    {
      "anonymous": false,
      "inputs": [
        {
          "indexed": true,
          "internalType": "address",
          "name": "l1Token",
          "type": "address"
        },
        {
          "indexed": true,
          "internalType": "address",
          "name": "_from",
          "type": "address"
        },
        {
          "indexed": true,
          "internalType": "address",
          "name": "_to",
          "type": "address"
        },
        {
          "indexed": false,
          "internalType": "uint256",
          "name": "_amount",
          "type": "uint256"
        }
      ],
      "name": "DepositInitiated",
      "type": "event"
    },
    {
      "anonymous": false,
      "inputs": [
        {
          "indexed": true,
          "internalType": "bytes32",
          "name": "role",
          "type": "bytes32"
        },
        {
          "indexed": true,
          "internalType": "bytes32",
          "name": "previousAdminRole",
          "type": "bytes32"
        },
        {
          "indexed": true,
          "internalType": "bytes32",
          "name": "newAdminRole",
          "type": "bytes32"
        }
      ],
      "name": "RoleAdminChanged",
      "type": "event"
    },
    {
      "anonymous": false,
      "inputs": [
        {
          "indexed": true,
          "internalType": "bytes32",
          "name": "role",
          "type": "bytes32"
        },
        {
          "indexed": true,
          "internalType": "address",
          "name": "account",
          "type": "address"
        },
        {
          "indexed": true,
          "internalType": "address",
          "name": "sender",
          "type": "address"
        }
      ],
      "name": "RoleGranted",
      "type": "event"
    },
    {
      "anonymous": false,
      "inputs": [
        {
          "indexed": true,
          "internalType": "bytes32",
          "name": "role",
          "type": "bytes32"
        },
        {
          "indexed": true,
          "internalType": "address",
          "name": "account",
          "type": "address"
        },
        {
          "indexed": true,
          "internalType": "address",
          "name": "sender",
          "type": "address"
        }
      ],
      "name": "RoleRevoked",
      "type": "event"
    },
    {
      "anonymous": false,
      "inputs": [
        {
          "indexed": true,
          "internalType": "address",
          "name": "l1Token",
          "type": "address"
        },
        {
          "indexed": true,
          "internalType": "string",
          "name": "_l2Tx",
          "type": "string"
        },
        {
          "indexed": true,
          "internalType": "address",
          "name": "_to",
          "type": "address"
        },
        {
          "indexed": false,
          "internalType": "uint256",
          "name": "_amount",
          "type": "uint256"
        }
      ],
      "name": "WithdrawalFinalized",
      "type": "event"
    },
    {
      "inputs": [],
      "name": "DEFAULT_ADMIN_ROLE",
      "outputs": [
        {
          "internalType": "bytes32",
          "name": "",
          "type": "bytes32"
        }
      ],
      "stateMutability": "view",
      "type": "function"
    },
    {
      "inputs": [],
      "name": "ORACLE_ROLE",
      "outputs": [
        {
          "internalType": "bytes32",
          "name": "",
          "type": "bytes32"
        }
      ],
      "stateMutability": "view",
      "type": "function"
    },
    {
      "inputs": [
        {
          "internalType": "address",
          "name": "_to",
          "type": "address"
        },
        {
          "internalType": "string",
          "name": "_l2Tx",
          "type": "string"
        },
        {
          "internalType": "uint256",
          "name": "_amount",
          "type": "uint256"
        }
      ],
      "name": "finalizeInboundTransfer",
      "outputs": [],
      "stateMutability": "nonpayable",
      "type": "function"
    },
    {
      "inputs": [
        {
          "internalType": "bytes32",
          "name": "role",
          "type": "bytes32"
        }
      ],
      "name": "getRoleAdmin",
      "outputs": [
        {
          "internalType": "bytes32",
          "name": "",
          "type": "bytes32"
        }
      ],
      "stateMutability": "view",
      "type": "function"
    },
    {
      "inputs": [
        {
          "internalType": "bytes32",
          "name": "role",
          "type": "bytes32"
        },
        {
          "internalType": "address",
          "name": "account",
          "type": "address"
        }
      ],
      "name": "grantRole",
      "outputs": [],
      "stateMutability": "nonpayable",
      "type": "function"
    },
    {
      "inputs": [
        {
          "internalType": "bytes32",
          "name": "role",
          "type": "bytes32"
        },
        {
          "internalType": "address",
          "name": "account",
          "type": "address"
        }
      ],
      "name": "hasRole",
      "outputs": [
        {
          "internalType": "bool",
          "name": "",
          "type": "bool"
        }
      ],
      "stateMutability": "view",
      "type": "function"
    },
    {
      "inputs": [],
      "name": "l1Token",
      "outputs": [
        {
          "internalType": "contract IERC20",
          "name": "",
          "type": "address"
        }
      ],
      "stateMutability": "view",
      "type": "function"
    },
    {
      "inputs": [],
      "name": "l2Token",
      "outputs": [
        {
          "internalType": "contract IERC20",
          "name": "",
          "type": "address"
        }
      ],
      "stateMutability": "view",
      "type": "function"
    },
    {
      "inputs": [
        {
          "internalType": "address",
          "name": "_to",
          "type": "address"
        },
        {
          "internalType": "uint256",
          "name": "_amount",
          "type": "uint256"
        }
      ],
      "name": "outboundTransfer",
      "outputs": [],
      "stateMutability": "nonpayable",
      "type": "function"
    },
    {
      "inputs": [
        {
          "internalType": "bytes32",
          "name": "role",
          "type": "bytes32"
        },
        {
          "internalType": "address",
          "name": "account",
          "type": "address"
        }
      ],
      "name": "renounceRole",
      "outputs": [],
      "stateMutability": "nonpayable",
      "type": "function"
    },
    {
      "inputs": [
        {
          "internalType": "bytes32",
          "name": "role",
          "type": "bytes32"
        },
        {
          "internalType": "address",
          "name": "account",
          "type": "address"
        }
      ],
      "name": "revokeRole",
      "outputs": [],
      "stateMutability": "nonpayable",
      "type": "function"
    },
    {
      "inputs": [
        {
          "internalType": "bytes4",
          "name": "interfaceId",
          "type": "bytes4"
        }
      ],
      "name": "supportsInterface",
      "outputs": [
        {
          "internalType": "bool",
          "name": "",
          "type": "bool"
        }
      ],
      "stateMutability": "view",
      "type": "function"
    },
    {
      "inputs": [],
      "name": "totalBridgedBalance",
      "outputs": [
        {
          "internalType": "uint256",
          "name": "",
          "type": "uint256"
        }
      ],
      "stateMutability": "view",
      "type": "function"
    }
  ],
  "transactionHash": "0x77e057c728c0914aab9870fd583abba4f2c33953c54d149fef589e22acda13c7",
  "args": [
    "0xCE3f6f6672616c39D8B6858F8DAC9902eCa42C84",
    "0xff6D784D5938CB3980Dce79BbAcEc53987D527d8"
  ],
  "solcInputHash": "d9be6b6eb6e43747d4c3b79ccf13f28e",
  "bytecode": "0x60806040523480156200001157600080fd5b5060405162000f8838038062000f888339810160408190526200003491620001d4565b6001600160a01b0382166200007d5760405162461bcd60e51b815260206004820152600a6024820152692d22a927afaa27a5a2a760b11b60448201526064015b60405180910390fd5b6001600160a01b038116620000c25760405162461bcd60e51b815260206004820152600a6024820152692d22a927afaa27a5a2a760b11b604482015260640162000074565b600180546001600160a01b038085166001600160a01b0319928316179092556002805492841692909116919091179055620000ff60003362000107565b50506200020c565b62000113828262000117565b5050565b6000828152602081815260408083206001600160a01b038516845290915290205460ff1662000113576000828152602081815260408083206001600160a01b03851684529091529020805460ff19166001179055620001733390565b6001600160a01b0316816001600160a01b0316837f2f8788117e7eff1d82e926ec794901d17c78024a50270940304540a733656f0d60405160405180910390a45050565b80516001600160a01b0381168114620001cf57600080fd5b919050565b60008060408385031215620001e857600080fd5b620001f383620001b7565b91506200020360208401620001b7565b90509250929050565b610d6c806200021c6000396000f3fe608060405234801561001057600080fd5b50600436106100cf5760003560e01c806356eff2671161008c578063a217fddf11610066578063a217fddf146101d6578063c01e1bd6146101de578063d547741f146101f1578063d72ce90e1461020457600080fd5b806356eff267146101855780638ba9c828146101b057806391d14854146101c357600080fd5b806301ffc9a7146100d457806307e2cea5146100fc5780630b400f1c14610131578063248a9ca31461013a5780632f2ff15d1461015d57806336568abe14610172575b600080fd5b6100e76100e23660046109f9565b610217565b60405190151581526020015b60405180910390f35b6101237f68e79a7bf1e0bc45d0a330c573bc367f9cf464fd326078812f301165fbda4ef181565b6040519081526020016100f3565b61012360035481565b610123610148366004610a23565b60009081526020819052604090206001015490565b61017061016b366004610a58565b61024e565b005b610170610180366004610a58565b610279565b600254610198906001600160a01b031681565b6040516001600160a01b0390911681526020016100f3565b6101706101be366004610a84565b6102fc565b6100e76101d1366004610a58565b610474565b610123600081565b600154610198906001600160a01b031681565b6101706101ff366004610a58565b61049d565b610170610212366004610ac4565b6104c3565b60006001600160e01b03198216637965db0b60e01b148061024857506301ffc9a760e01b6001600160e01b03198316145b92915050565b60008281526020819052604090206001015461026a81336106f1565b6102748383610755565b505050565b6001600160a01b03811633146102ee5760405162461bcd60e51b815260206004820152602f60248201527f416363657373436f6e74726f6c3a2063616e206f6e6c792072656e6f756e636560448201526e103937b632b9903337b91039b2b63360891b60648201526084015b60405180910390fd5b6102f882826107d9565b5050565b6000811161034c5760405162461bcd60e51b815260206004820152601760248201527f43616e6e6f74206465706f736974203020546f6b656e7300000000000000000060448201526064016102e5565b600354610359908261083e565b6003556001546040516323b872dd60e01b8152336004820152306024820152604481018390526001600160a01b03909116906323b872dd90606401602060405180830381600087803b1580156103ae57600080fd5b505af11580156103c2573d6000803e3d6000fd5b505050506040513d601f19601f820116820180604052508101906103e69190610b8f565b6104295760405162461bcd60e51b81526020600482015260146024820152731514905394d1915497d19493d357d1905253115160621b60448201526064016102e5565b6001546040518281526001600160a01b038481169233929116907f7abe8fd2d210cf1e5d2cb3e277afd776d77269c8869b02c39f0bb542de0fdba19060200160405180910390a45050565b6000918252602082815260408084206001600160a01b0393909316845291905290205460ff1690565b6000828152602081905260409020600101546104b981336106f1565b61027483836107d9565b7f68e79a7bf1e0bc45d0a330c573bc367f9cf464fd326078812f301165fbda4ef16104ee81336106f1565b6000821161052a5760405162461bcd60e51b81526020600482015260096024820152681393d7d05353d5539560ba1b60448201526064016102e5565b6001600160a01b03841661056e5760405162461bcd60e51b815260206004820152600b60248201526a2727afa922a1a2a4ab22a960a91b60448201526064016102e5565b8160035410156105b55760405162461bcd60e51b81526020600482015260126024820152714e4f545f454e4f5547485f42414c414e434560701b60448201526064016102e5565b6003546105c29083610851565b60035560015460405163a9059cbb60e01b81526001600160a01b038681166004830152602482018590529091169063a9059cbb90604401602060405180830381600087803b15801561061357600080fd5b505af1158015610627573d6000803e3d6000fd5b505050506040513d601f19601f8201168201806040525081019061064b9190610b8f565b6106895760405162461bcd60e51b815260206004820152600f60248201526e1514905394d1915497d19052531151608a1b60448201526064016102e5565b836001600160a01b0316836040516106a19190610be1565b60405190819003812060015485835290916001600160a01b03909116907f67d675f6468b292e45b4a99685f1e56065b470c5f643ad48ed535d6fee7c65e79060200160405180910390a450505050565b6106fb8282610474565b6102f857610713816001600160a01b0316601461085d565b61071e83602061085d565b60405160200161072f929190610bfd565b60408051601f198184030181529082905262461bcd60e51b82526102e591600401610c72565b61075f8282610474565b6102f8576000828152602081815260408083206001600160a01b03851684529091529020805460ff191660011790556107953390565b6001600160a01b0316816001600160a01b0316837f2f8788117e7eff1d82e926ec794901d17c78024a50270940304540a733656f0d60405160405180910390a45050565b6107e38282610474565b156102f8576000828152602081815260408083206001600160a01b0385168085529252808320805460ff1916905551339285917ff6391f5c32d9c69d2a47ea670b442974b53935d1edc7fd64eb21e047a839171b9190a45050565b600061084a8284610cbb565b9392505050565b600061084a8284610cd3565b6060600061086c836002610cea565b610877906002610cbb565b67ffffffffffffffff81111561088f5761088f610aae565b6040519080825280601f01601f1916602001820160405280156108b9576020820181803683370190505b509050600360fc1b816000815181106108d4576108d4610d09565b60200101906001600160f81b031916908160001a905350600f60fb1b8160018151811061090357610903610d09565b60200101906001600160f81b031916908160001a9053506000610927846002610cea565b610932906001610cbb565b90505b60018111156109aa576f181899199a1a9b1b9c1cb0b131b232b360811b85600f166010811061096657610966610d09565b1a60f81b82828151811061097c5761097c610d09565b60200101906001600160f81b031916908160001a90535060049490941c936109a381610d1f565b9050610935565b50831561084a5760405162461bcd60e51b815260206004820181905260248201527f537472696e67733a20686578206c656e67746820696e73756666696369656e7460448201526064016102e5565b600060208284031215610a0b57600080fd5b81356001600160e01b03198116811461084a57600080fd5b600060208284031215610a3557600080fd5b5035919050565b80356001600160a01b0381168114610a5357600080fd5b919050565b60008060408385031215610a6b57600080fd5b82359150610a7b60208401610a3c565b90509250929050565b60008060408385031215610a9757600080fd5b610aa083610a3c565b946020939093013593505050565b634e487b7160e01b600052604160045260246000fd5b600080600060608486031215610ad957600080fd5b610ae284610a3c565b9250602084013567ffffffffffffffff80821115610aff57600080fd5b818601915086601f830112610b1357600080fd5b813581811115610b2557610b25610aae565b604051601f8201601f19908116603f01168101908382118183101715610b4d57610b4d610aae565b81604052828152896020848701011115610b6657600080fd5b826020860160208301376000602084830101528096505050505050604084013590509250925092565b600060208284031215610ba157600080fd5b8151801515811461084a57600080fd5b60005b83811015610bcc578181015183820152602001610bb4565b83811115610bdb576000848401525b50505050565b60008251610bf3818460208701610bb1565b9190910192915050565b7f416363657373436f6e74726f6c3a206163636f756e7420000000000000000000815260008351610c35816017850160208801610bb1565b7001034b99036b4b9b9b4b733903937b6329607d1b6017918401918201528351610c66816028840160208801610bb1565b01602801949350505050565b6020815260008251806020840152610c91816040850160208701610bb1565b601f01601f19169190910160400192915050565b634e487b7160e01b600052601160045260246000fd5b60008219821115610cce57610cce610ca5565b500190565b600082821015610ce557610ce5610ca5565b500390565b6000816000190483118215151615610d0457610d04610ca5565b500290565b634e487b7160e01b600052603260045260246000fd5b600081610d2e57610d2e610ca5565b50600019019056fea2646970667358221220e5c452ebff77930ca47c3db4dd54f2a35254ce7534985405e78f87e4d26962a864736f6c63430008090033",
  "devdoc": {
    "kind": "dev",
    "methods": {
      "finalizeInboundTransfer(address,string,uint256)": {
        "params": {
          "_amount": "Token amount being deposited",
          "_l2Tx": "Tx hash of `L2Bridge.outboundTransfer` on L2 side",
          "_to": "L1 address of destination"
        }
      },
      "getRoleAdmin(bytes32)": {
        "details": "Returns the admin role that controls `role`. See {grantRole} and {revokeRole}. To change a role's admin, use {_setRoleAdmin}."
      },
      "grantRole(bytes32,address)": {
        "details": "Grants `role` to `account`. If `account` had not been already granted `role`, emits a {RoleGranted} event. Requirements: - the caller must have ``role``'s admin role."
      },
      "hasRole(bytes32,address)": {
        "details": "Returns `true` if `account` has been granted `role`."
      },
      "outboundTransfer(address,uint256)": {
        "params": {
          "_amount": "Token amount to bridge",
          "_to": "L2 address of destination"
        }
      },
      "renounceRole(bytes32,address)": {
        "details": "Revokes `role` from the calling account. Roles are often managed via {grantRole} and {revokeRole}: this function's purpose is to provide a mechanism for accounts to lose their privileges if they are compromised (such as when a trusted device is misplaced). If the calling account had been granted `role`, emits a {RoleRevoked} event. Requirements: - the caller must be `account`."
      },
      "revokeRole(bytes32,address)": {
        "details": "Revokes `role` from `account`. If `account` had been granted `role`, emits a {RoleRevoked} event. Requirements: - the caller must have ``role``'s admin role."
      },
      "supportsInterface(bytes4)": {
        "details": "See {IERC165-supportsInterface}."
      }
    },
    "version": 1
  },
  "userdoc": {
    "kind": "user",
    "methods": {
      "finalizeInboundTransfer(address,string,uint256)": {
        "notice": "Finalizes withdrawal initiated on L2. callable only by ORACLE_ROLE"
      },
      "outboundTransfer(address,uint256)": {
        "notice": "Initiates a deposit from L1 to L2; callable by any tokenholder. The amount should be approved by the holder"
      }
    },
    "version": 1
  },
  "storageLayout": {
    "storage": [
      {
        "astId": 62,
        "contract": "contracts/L1Bridge.sol:L1Bridge",
        "label": "_roles",
        "offset": 0,
        "slot": "0",
        "type": "t_mapping(t_bytes32,t_struct(RoleData)57_storage)"
      },
      {
        "astId": 3471,
        "contract": "contracts/L1Bridge.sol:L1Bridge",
        "label": "l1Token",
        "offset": 0,
        "slot": "1",
        "type": "t_contract(IERC20)1095"
      },
      {
        "astId": 3474,
        "contract": "contracts/L1Bridge.sol:L1Bridge",
        "label": "l2Token",
        "offset": 0,
        "slot": "2",
        "type": "t_contract(IERC20)1095"
      },
      {
        "astId": 3476,
        "contract": "contracts/L1Bridge.sol:L1Bridge",
        "label": "totalBridgedBalance",
        "offset": 0,
        "slot": "3",
        "type": "t_uint256"
      }
    ],
    "types": {
      "t_address": {
        "encoding": "inplace",
        "label": "address",
        "numberOfBytes": "20"
      },
      "t_bool": {
        "encoding": "inplace",
        "label": "bool",
        "numberOfBytes": "1"
      },
      "t_bytes32": {
        "encoding": "inplace",
        "label": "bytes32",
        "numberOfBytes": "32"
      },
      "t_contract(IERC20)1095": {
        "encoding": "inplace",
        "label": "contract IERC20",
        "numberOfBytes": "20"
      },
      "t_mapping(t_address,t_bool)": {
        "encoding": "mapping",
        "key": "t_address",
        "label": "mapping(address => bool)",
        "numberOfBytes": "32",
        "value": "t_bool"
      },
      "t_mapping(t_bytes32,t_struct(RoleData)57_storage)": {
        "encoding": "mapping",
        "key": "t_bytes32",
        "label": "mapping(bytes32 => struct AccessControl.RoleData)",
        "numberOfBytes": "32",
        "value": "t_struct(RoleData)57_storage"
      },
      "t_struct(RoleData)57_storage": {
        "encoding": "inplace",
        "label": "struct AccessControl.RoleData",
        "members": [
          {
            "astId": 54,
            "contract": "contracts/L1Bridge.sol:L1Bridge",
            "label": "members",
            "offset": 0,
            "slot": "0",
            "type": "t_mapping(t_address,t_bool)"
          },
          {
            "astId": 56,
            "contract": "contracts/L1Bridge.sol:L1Bridge",
            "label": "adminRole",
            "offset": 0,
            "slot": "1",
            "type": "t_bytes32"
          }
        ],
        "numberOfBytes": "64"
      },
      "t_uint256": {
        "encoding": "inplace",
        "label": "uint256",
        "numberOfBytes": "32"
      }
    }
  }
}